:020000040800F2
:10000000D02C0020650300081B520008074C000894
:100010001952000885200008F7740008000000004D
:10002000000000000000000000000000AD560008C5
:100030001521000800000000B3550008B95600085B
:100040007F0300087F0300087F0300087F03000888
:100050007F0300087F0300087F0300087F03000878
:100060007F0300087F0300087F0300087F03000868
:100070007F0300087F0300087F0300087F03000858
:100080007F030008000000007F0300087F030008D2
:10009000897400087F0300087F0300087F030008BD
:1000A0007F0300087F0300087F0300087F03000828
:1000B000395700087F0300087F0300087F0300080A
:1000C0007F0300087F0300087F0300087F03000808
:1000D0007F030008995D00087F0300087F03000884
:1000E0007F0300087F0300087F0300087F030008E8
:1000F0007F0300087F0300087F0300080000000062
:10010000000000007F030008000000007F030008DB
:100110007F030008000000007F0300087F03000841
:100120007F0300087F0300087F0300087F030008A7
:100130007F03000800000000000000007F030008AB
:100140007F0300087F03000800000000000000009B
:10015000000000000000000000000000000000009F
:100160000000000000000000000000007F03000805
:100170007F030008000000000000000000000000F5
:10018000000000007F0300080000000000000000E5
:10019000000000000000000000000000000000005F
:1001A00000000000000000007F0300087F0300083B
:1001B0007F0300087F0300087F03000800000000A1
:1001C000000000007F0300080000000000000000A5
:1001D0007F0300087F03000800F002F800F0B2F887
:1001E0000AA090E8000C82448344AAF10107DA4592
:1001F00001D100F0A7F8AFF2090EBAE80F0013F032
:10020000010F18BFFB1A43F001031847909E00002E
:10021000B09E00000A444FF0000C10F8013B13F0B0
:10022000070408BF10F8014B1D1108BF10F8015B4F
:10023000641E05D010F8016B641E01F8016BF9D142
:1002400013F0080F1EBF10F8014BAD1C0C1B09D199
:100250006D1E58BF01F801CBFAD505E014F8016B0B
:1002600001F8016B6D1EF9D59142D6D3704700009D
:100270000023002400250026103A28BF78C1FBD8AF
:10028000520728BF30C148BF0B6070476E2900F08D
:100290004383702900F09D86662909F0F68565295B
:1002A00009F0F385672909F0F085612909F0EF85E8
:1002B00003681B0A28BF41F08001692900F0F08221
:1002C000642900F0ED82752900F0EA826F2900F0C0
:1002D0002A86782900F06986E92900F0C585E42995
:1002E00000F0C285F52900F0BF85EF2900F02786D0
:1002F000F82900F068860368DB0928BF41F0800117
:10030000632901F04181732901F04681E32901F05D
:100310005181F32901F05681002070471FB509F083
:10032000AAFD00F0C7FE04000020002109F0A2F899
:10033000401C60600020002109F086F8E0601FBDCD
:1003400010B510BD01F042FA1146FFF7E7FF08F0C3
:100350007BFD01F06EFA03B4FFF7F2FF03BC01F07E
:1003600073FA00000948804709480047FEE7FEE7A6
:10037000FEE7FEE7FEE7FEE7FEE7FEE7FEE7FEE755
:1003800004480549054A064B7047000029570008F4
:10039000D9010008D0200020D02C0020D02400203B
:1003A000D024002053EA020C00F069802DE9F04BC4
:1003B0004FF00006002B1FBFB3FA83F503FA05F4D4
:1003C00024FA05F65E4012BF1643B2FA82F502FA2D
:1003D00005F4C5F120051EBF22FA05FC44EA0C0411
:1003E000203556EA044C4FEA144418BF641C4FF001
:1003F00000084FF00009904271EB030C39D300293B
:1004000019BFB1FA81F701FA07F6B0FA80F700FADE
:1004100007F6C7F120071EBF20FA07FC46EA0C06C4
:100420002037B6FBF4FCA7EB0507103F07F01F0BC6
:10043000CBF120060CFA0BFB2CFA06F644BFB346B0
:100440000026202FA4BF5E464FF0000B5BEA060C8F
:1004500008BF4FF0010B19EB0B09ABFB027C48EB1B
:100460000608C01B06FB02CC0BFB03CC71EB0C0196
:10047000C1E70B46024641464846BDE8F08B13B53E
:100480004FF000004FF00001AFF30080BDE81C40CA
:10049000704700007CB51D4616460C00009001D048
:1004A0002044401E074B7B442A4669460190304653
:1004B00000F05BFC05461CB10020694600F068FCBA
:1004C00028467CBDF10800002DE9F05F894604460E
:1004D0004FF0000ADFF874B1FB44C0F820A02046BA
:1004E000E1688847002874D0252806D0D4E9012186
:1004F0009047206A401C2062F1E700265F462046B4
:10050000E16888472028054607DB312D05D2781998
:1005100010F8200C08B10643F1E7B00701D526F02A
:100520000406C4F81CA00027C4F818A02A2D09D07E
:10053000284607F029FB38B304EB8708303DC8F89C
:10054000185019E059F8041B204604EB870291610A
:10055000E1688847012F054618D1E069002820DAB4
:1005600026F020061DE0D8F8180000EB800005EB0F
:1005700040003038C8F818002046E1688847054632
:1005800007F002FB0028EED1012F0AD02E2D08D152
:100590002046E16888477F1C0546022F46F020066A
:1005A000C4DBA069002803DA404246F00106A061DE
:1005B000F00701D026F010066C2D0BD0682D09D065
:1005C0004C2D39D06A2D35D0742D35D07A2D33D0BD
:1005D00016E038E0E1682F4620468847B8420546D5
:1005E00009D16C2F26D04FF48060E1680643204685
:1005F0008847054604E06C2F1AD04FF480700643FC
:100600000DB3A5F14100192802D8203546F4006643
:100610004A462946204626604E46FFF737FE80B1FF
:1006200001280BD0F61D26F0070000F1080956E757
:100630004020E4E78020D8E70020D6E706F104094F
:100640004DE7284652E7206ABDE8F09FF699000082
:1006500070B5064600F0B2F80468054630460A2236
:10066000002100F0C1FC2C6070BD0000014A00F0C8
:10067000F3BC00006C02002030B505460B462A464C
:1006800013F8014B12F8010B08B1A042F8D01CB1CD
:10069000002802D06D1CF1E7284630BD40EA010376
:1006A000024630B59B0710D14FF0013400E008C27C
:1006B00008C91D1B9D4315EAC41FF8D013F0FF01A4
:1006C00002F8011B0DD01B0AF8E711F8013B002BC3
:1006D00002F8013B05D011F8013B002B02F8013B69
:1006E000F3D130BD4FF0000200B513469446964654
:1006F000203922BFA0E80C50A0E80C50B1F1200135
:10070000BFF4F7AF090728BFA0E80C5048BF0CC0E2
:100710005DF804EB890028BF40F8042B08BF704740
:1007200048BF20F8022B11F0804F18BF00F8012BB2
:10073000704700004FF0013C50F8042B51F8043B87
:100740009A4221D1A2EB0C03934313EACC1317D1A5
:1007500050F8042B51F8043B9A4215D1A2EB0C033C
:10076000934313EACC130BD150F8042B51F8043BFC
:100770009A4209D1A2EB0C03934313EACC13DBD0CA
:100780004FF00000704700BFD01A01BAB1FA81F1F2
:1007900001F0180122FA01F0CB40C1F12001DBB2D7
:1007A000C0B2C01A2CFA01F3D11A914311EAC31155
:1007B000E6D17047704770477047000000487047A7
:1007C0007020002010B5FFF7F9FF006810BD10B5CC
:1007D0000446FFF7F3FF046010BD70B50446856959
:1007E0000068C10601D5302600E02026C00707D0EA
:1007F00070BDD4E9012130469047206A401C206238
:100800006D1EF6D570BD70B5044685690078C007C9
:1008100007D170BDD4E9012120209047206A401CF7
:1008200020626D1EF6D570BD09684A0501D540B23B
:100830007047C905FCD500B2704709684A0501D563
:10084000C0B27047C905FCD580B2704770B50C4680
:100850000546012A05D02878800600D5EA690023DC
:1008600002E0012305E05B1C934202D2E05C002819
:10087000F9D1A869E618C01AA861286A1844286244
:100880002846FFF7AAFF04E0D5E9012114F8010B7F
:100890009047B442F8D32846FFF7B5FF70BD00007B
:1008A0002DE9F0410646002410687529314616A549
:1008B00010D0FFF7B9FF002802DA404213A507E085
:1008C00031688A0701D512A502E0490704D511A5B0
:1008D000012401E0FFF7B1FF00210A2206F12407FD
:1008E00009E0B0FBF2FCB0FBF2F302FB1C0030307D
:1008F00078541846491C0028F3D123462A4630462E
:10090000BDE8F04100F01FBC000000002D00000019
:100910002B0000002000000011680268006A5305E7
:1009200001D508700AE0D30501D5088006E013065A
:1009300003D5C217C1E9000200E00860012070473A
:1009400070472DE9FF4F0C461E464FF0FF378BB026
:10095000D2E90001DDF860800A908A46C1F30A55A9
:1009600005B93D46002108464FF00000BAF1000FDE
:1009700000F4400005DA00EB80004FF4400101EA8A
:1009800050004FEA9059B9F1010F00DDB9460A98BD
:1009900050EA4A000ED044F61050A5F2FF35454308
:1009A0002F14B8F1000F1ED07542291E1EDDC9F1AB
:1009B00000021CE0B8F1010F4FF0000001D030211F
:1009C00003E0F24305E02154401CB042FBDB30461B
:1009D0000022002121540B99C1F80880C1E90020B0
:1009E0000FB0BDE8F08FBD1B6D1CDEE74A4600DA94
:1009F000694206A800F03AFE06AB93E8070003AB95
:100A000083E8070050460A9900F024FF8DE80700AC
:100A1000A0F500501F3800900398002D0ADD42F227
:100A20001F014A460844002303A90390684601F0C9
:100A30008DF909E0A0F500504A461F38002303A9AC
:100A40000390684601F097F98DE807000004000C58
:100A500003D04FF0FF30410800E01046B8F1000F1E
:100A600003D00022009215461EE0751E05D400F04A
:100A700025FB303262556D1EF9D5B346012208437D
:100A800002D000227F1C04E02078302801D100220F
:100A90007F1E002A099784D01DE0112D07DA00F08F
:100AA0000DFB303262556D1C50EA0102F5D108434E
:100AB00002D00098C8B10EE00021681E05E0235C5A
:100AC000625C63542254401E491C8142F7DBAB46F2
:100AD000A81B401E0990002004F80B000B98099AEF
:100AE000C0F80880C0E9002B7AE711264FF0000813
:100AF00057E72DE9F04F88460446D21D22F0070142
:100B000091B0D1E90001CDE90A0106F0F5FC0246F9
:100B10000B98C00F01D02D2007E02068810701D578
:100B20002B2002E0202101EAC000032A099001D015
:100B3000072A05DB03464146204600F0DBFC0BE1BB
:100B40002078800601D5E06900E00620B8F1650F45
:100B5000814606D0B8F1660F18D0B8F1670F70D192
:100B600031E00020B9F1110F009001DB112301E009
:100B700009F101030AAA01A90CA8FFF7E2FEDDE9C9
:100B80000C70002609F10105834647E001204B4621
:100B900000904FF000470AAA01A90CA8FFF7D1FE68
:100BA000DDE90DB00C995D46002610B909F1010090
:100BB0000D18B9EB050003D4C0F1FF3609F10105AA
:100BC000A5EB09002BE0B9F1010F01DA4FF00109A3
:100BD0000020B9F1110F0090484601DD112300E01B
:100BE00003460AAA01A90CA8FFF7ABFEDDE90C70C9
:100BF0004D4600268346207800070AD4AB4500DA2C
:100C00005D4601A8012D04DD411911F8011C3029B0
:100C100007D04F4502DA17F1040F04DA01208246AB
:100C20000FE06D1EEEE7002F02DCED1B3E4403E0FB
:100C3000781CA84200DD7D1CB81B00F1010A4FF0B2
:100C400000472078000703D4AA4501DB4FF0FF3AA4
:100C50000021B7F1004F0DF143088DF8431024D067
:100C600002202B23002F01DA7F422D230A21021EAE
:100C7000A0F1010000DC5FB197FBF1FC97FBF1F202
:100C800001FB1C7C17460CF1300C08F801CDEEE797
:100C9000A8F1010003702188090501D5452100E074
:100CA0006521A0F1010800F8011C09980FA9A1EB2A
:100CB0000807FF1D00B10120411901EBEA70A1698D
:100CC0003844081A401EA0612078C00602D420468D
:100CD000FFF783FD099828B1D4E901219047206AE4
:100CE000401C20622078C00622D52046FFF775FD03
:100CF0001EE0002E04DBB34502DD01A8805D00E0AC
:100D00003020D4E901219047206A401C2062761CE3
:100D1000AAF101005FEA000A0AD100F0CBF9C0682D
:100D20000168405CD4E901219047206A401C2062A0
:100D3000281EA5F10105DCDC07E0D4E9012118F843
:100D4000010B9047206A401C2062381EA7F1010762
:100D5000F3DC2046FFF757FD032011B041E6000009
:100D600001694A1C02610878704700B58FB0CDE96F
:100D700001310021059105497944CDE9031011465F
:100D80006846FFF7A1FB0FB000BD0000E5FFFFFFC5
:100D90000A6802F8010B0A607047D1E900239A4201
:100DA00002D2531C0B601070704700002DE9FF5FEA
:100DB00015468A460446DFF8AC80F8440027D8E997
:100DC00000103E46CDE9001010E03AF816106A46D1
:100DD00002A800F0BDFC411C07D02178890603D58C
:100DE000E269391891420DD80744761C20788006B4
:100DF00002D5E069B84205DDAE42E6DB3AF81600FE
:100E00000028E2D1A069C01BA0612046FFF7E5FCE5
:100E1000D8E90010CDE90010002017E03AF81810CA
:100E20006A4602A800F094FCB0F1FF3F81460BD067
:100E300000250DF1080B05E0D4E901211BF80500A0
:100E400090476D1C4D45F7D308F10100B042804634
:100E5000E4DB206A384420622046FFF7D4FCBDE87A
:100E6000FF9F0000269100002DE9F0418046D21D31
:100E700022F007020025D2E90002F52915A614D0B8
:100E8000011E72F1000106DA0023D0EB030063EBD0
:100E9000020211A608E0D8F800108B0701D50FA6B2
:100EA00002E0490701D50EA601251146002408F1EC
:100EB000240704E000F002F930323A55641C50EA8D
:100EC0000102F7D12B46324621464046BDE8F041AB
:100ED00000F039B9000000002D0000002B000000D8
:100EE0002000000030B4002100F1240408E002F0EA
:100EF0000705D208303542EA4372DB086554491CC5
:100F000052EA0305F3D10468002310A2250707D590
:100F1000A40600D421B1C46901230DA2641EC461DA
:100F200030BC00F010B910B5044621461068FFF738
:100F300084FC02462046BDE810400023D2E7D21DC3
:100F400022F00701D1E90023CCE7000000000000F7
:100F500030000000F0B40D460188090502D5214C8F
:100F60007C4402E01F4C7C440E34002100F1240636
:100F700008E002F00F071209E75D42EA03721B095D
:100F80007754491C52EA0307F3D102780023120771
:100F900004D5702D06D009B1022311342246F0BCCD
:100FA00000F0D1B801231034F8E770B504460D46BF
:100FB00021461068FFF741FC024629462046BDE85D
:100FC00070400023C6E7D21D22F00703D3E90023B7
:100FD000C0E70368126843F0200303600823C3617D
:100FE0000023B7E7888F00002DE9F04791460F46B0
:100FF00080460446002614F8015B2DB100F052F83B
:101000000068405DC007F6D12B2D02D02D2D18D0E1
:10101000641E4A463946204600F0D8FA27B139689E
:10102000A14201D1C7F800804FF0020471050BD531
:101030004042002803DDFFF7C1FB0460A007BDE8C4
:10104000F08746F48066E4E70028F8DAFFF7B6FB9D
:1010500004606FF00040F2E72DE9F04115460E46BE
:10106000040002D12C6804B90BA4204600F0A0FBB8
:101070000444207870B127463146384600F088FB9A
:101080000444207810B1002004F8010B38462C608D
:10109000BDE8F0810027F9E7000000000048704734
:1010A0007020002010B500F005F8001D10BD00BF35
:1010B000C5830000004870479020002030B5B0F193
:1010C0000A024FEA900E71F100034EEA817EB0EB06
:1010D0000E0061EB91014FEA101E4EEA017E10EB0B
:1010E0000E0041EB11114FEA102E4EEA016E10EB8B
:1010F0000E0041EB11214FEA104E4EEA014E10EB6B
:101100000E0041EB1141401841F100014FEAD000BF
:1011100040EA41704FEAD10110EB80054FEA8104AB
:1011200044EA907444EB01046D1944EB0404521B2F
:10113000A3414FF0000348BF0A3200D530BD401C28
:1011400041F1000130BD2DE9F0470D469946924628
:10115000044600F124080168880604D5E06921F0FE
:101160001001216000E00120A84201DD471B00E0E2
:101170000027A1697A1902EB0900081AA0612078FA
:10118000C00602D42046FFF728FB002608E0D4E979
:1011900001211AF806009047206A401C761C206244
:1011A0004E45F4DB2078C0060AD52046FFF715FB34
:1011B00006E0D4E9012130209047206A401C2062DB
:1011C000381EA7F10107F4DC07E0D4E9012118F883
:1011D00005009047206A401C2062281EA5F10105E9
:1011E000F3DC2046FFF70FFB2078000602D5022033
:1011F000BDE8F0870120FBE72DE9F04F04460D46DE
:10120000D21D22F0070089B0D0E900974846394640
:1012100006F072F90246F80F01D02D2307E020688E
:10122000810701D52B2302E0202101EAC0038DF8BC
:1012300020300BB1012000E00020032A824601D0BB
:10124000072A04DB2946204600F054F93FE12078C4
:10125000800601D40D2500E0E569C7F30A560D2D7F
:1012600049DA00214FEA175B08464FF00000002FD3
:1012700000F4400007DA00EB80004FF4400100EB7F
:10128000D07001EA60008115012901DD4FF0FF31C6
:1012900000224FEA850CBCF1180F06D31346ACF1BF
:1012A00018004FF08052C24003E04FF4801323FA3D
:1012B0000CF30CF10C0CBCF1200F04D3ACF1200C9E
:1012C00009FA0CF001E007FA0CF000294FF0004891
:1012D00001DD18B90FE00ED140450CD319EB02091E
:1012E0005F4121B9404502D19F4329EA0209BBEB86
:1012F000175F00D0761C2088000502D57B48784413
:1013000002E07A487844193808AA302302F80A30F3
:10131000037C0AF10101002E0AF1020A53546A46C5
:1013200002DC4FF0300101E04FF031014FF00108D5
:101330008DF8001002D0A6F2FF3603E059EA47010B
:1013400000D06B4E002D02DC2178090704D54FF048
:1013500002082E218DF80110C44600210BE0C7F3CE
:1013600003433F01C35C491C6D1E02F80830052988
:1013700008F1010801DA002DF1DC00210CE000EB9E
:101380001973491C1B786D1E082902F808304FEAB2
:10139000091908F1010801DA002DF0DC21688B063B
:1013A00002D516E0A8F10108E04505DD02EB0803CF
:1013B00013F8013C302BF5D0B8F1000F09DD02EB3A
:1013C000080313F8013C2E2B03D1090701D4A8F11F
:1013D0000108002D05DD3E2102F808106D1E08F100
:1013E0000108407C002E02F8080008F1010804DA28
:1013F0002D20764202F8080002E02B2002F80800B7
:101400000A214FF47A70864208F101080BDB96FB43
:10141000F0F3303302F8083096FBF0F308F10108DE
:1014200000FB136601E0642E0CDB642096FBF0F3F6
:10143000303302F8083096FBF0F308F1010800FBA6
:10144000136601E00A2E06DB96FBF1F0303002F85D
:10145000080008F1010896FBF1F001FB1060303044
:1014600002F80800A16908F1010808EB050202EB87
:101470000A00081AA0612078C00602D42046FFF7AF
:10148000ACF9216A08AE01EB0A00206204E0D4E95D
:10149000012116F8010B9047BAF1010AF7D2207822
:1014A000C00602D52046FFF798F96E4609E016F807
:1014B000010B3E280FD0D4E901219047206A401C3F
:1014C0002062B8F10108F2D22046FFF79CF909B07A
:1014D0000320BDE8F08F206A2844206203E0D4E9AD
:1014E0000121302090476D1EEBD3F8E7C98C000036
:1014F00002FCFFFF2DE9F0411F4604460326016868
:10150000072A01F4006004DB08B116A505E016A562
:1015100003E008B115A500E015A521F0100020603A
:10152000A069C01EA0610FB1401EA0612046FFF758
:1015300054F94FB1D4E9012138469047206A401C44
:101540002062C01C206206E0206AFAE7D4E901218B
:1015500015F8010B9047761EF8D22046FFF753F995
:10156000BDE8F0814E414E006E616E00494E46006E
:10157000696E660010B5436913B1AFF3008001E0F6
:10158000FFF764F9012010BD127800F124010A7000
:1015900000224A700122EDE711684FF0FF32E9E7BF
:1015A00010B5436913B1AFF3008001E0FFF7FEFB14
:1015B000012010BD128800F1240182840022C2841F
:1015C0000122EDE711684FF0FF32E9E72DE9F05F06
:1015D000824615468B4600270AF10104B946007879
:1015E000302801D09DB113E014F8010B01277828B1
:1015F00003D0582801D045B10AE00DB1102D07D114
:10160000002714F8010B102502E0082500E00A2548
:101610000026B0460EE005FB080005FB06F1012799
:101620001FFA80F801EB1046B6F5803F00D3B946AB
:1016300014F8010B294600F0EEF80028EBDABBF1B4
:10164000000F05D00FB1641E00E05446CBF80040F7
:10165000B9F1000F06D0FFF7B1F802210160C81EF2
:10166000BDE8F09F48EA0640FAE700002DE9F047A0
:10167000814616468AB0354878440DC88DE80D007D
:1016800032487844801C03AC0DC884E80D0041F654
:101690009B300844372190FBF1F290FBF1F5A5F166
:1016A000800501FB12041B3C02D56442012000E0CE
:1016B0000020DFF898A080460027FA44AAF1BE0A6D
:1016C0000EE0E0070AD03246684607EB47010123E7
:1016D0000AEB810100F04FFB8DE8070064107F1CCE
:1016E000002CEED1194F7F44AE3F19E0E80715D02A
:1016F00007EB04100DF1180A90E80E008AE80E00BE
:10170000C068F04201D1981908903246012306A919
:1017100003A800F030FB03AB83E807006D10641CE6
:10172000002DE3D14FF0010332466946B8F1000FB6
:1017300003A802D000F00AFB01E000F01CFBC9E99D
:101740000001C9F808200AB0BDE8F087E089000070
:1017500070B516460C460546FFF7A4FC036893F8DF
:101760000101012806D0FF2C0FD8185D68B10120B7
:101770002C7070BDD3F807013246214603F20713DF
:1017800003442846BDE8704018474FF0FF3070BD55
:1017900030B503461D781DB10A4603E0AC4201D1C5
:1017A000181A30BD12F8014B002CF7D15B1CF1E781
:1017B00030B503461D783DB10A4612F8014B1CB105
:1017C000AC42FAD15B1CF5E7181A30BD7546FFF73D
:1017D00065FCAE4605006946534620F00700854685
:1017E00018B020B5FEF7CCFDBDE820404FF0000654
:1017F0004FF000074FF000084FF0000B21F00701F9
:10180000AC46ACE8C009ACE8C009ACE8C009ACE83B
:10181000C0098D4670473A2800D2303820F02002A7
:10182000412A01D3A2F13700884201D34FF0FF30A3
:10183000704710B50446AFF300802046BDE8104065
:10184000FEF789BD7047000001491820ABBEFEE7D6
:10185000260002005FEA400C08BF91F0000F4FEA3B
:101860008C234FEAC12243EA51514FEA1C5018BF62
:1018700000F5F0404FEA300018BF41F000415FEA48
:101880006C5C00F02980BCF1FF3F08BF40F0804055
:101890007047130C06BF12044FF0100C4FF0000CF1
:1018A000130E04BF12020CF1080C130F04BF120137
:1018B0000CF1040C930F04BF92000CF1020CD30F37
:1018C00004BF52000CF1010C11464FF00002A0F1D0
:1018D0001F00A0EB0C00704711F0004F08BF7047CD
:1018E00031F000413FF4D5AF0B0C06BF09044FF0B7
:1018F000100C4FF0000C0B0E04BF09020CF1080C89
:101900000B0F04BF09010CF1040C8B0F04BF8900FD
:101910000CF1020CCB0F04BF49000CF1010CCCF10F
:101920002003A0EB0C0022FA03F302FA0CF241EAC6
:10193000030100F10100704720F07F4C80EA0300B2
:1019400023F07F47ACEB070303F57C5300F0004026
:1019500003F1FF032DE980494FEA154B09B44FEA23
:10196000144325EA0B4E24EA03480FF2042606EB43
:10197000132749083E785FEA320203FB0667C7F582
:10198000000707FB06F64FEA54374FEAD64606F142
:10199000020607FB066CCCF1005C4FEA1C472CEA00
:1019A000074C07FB06F40CFB06F504EB15464FEA63
:1019B000961634BF00204FF000404FEAD13706FBA7
:1019C00007FC4FEA1C4C0CFB0BF7D21B03FB0CF77C
:1019D00061EB07010CFB0EF7B0EB074072EB17420F
:1019E0000CFB08F734BFA2EB0742B2EB074261EBF6
:1019F00017414FEA0C444FEA910706FB07FC4FEAF8
:101A00001C4C0CFB0BF7B0EBC74072EB573203FBDF
:101A10000CF734BFA2EBC742B2EBC74261EB5731C0
:101A20000CFB0EF7B0EBC70072EB57720CFB08F71C
:101A300034BFA2EBC702B2EBC70261EB5771039F41
:101A40004FEA816141EA921104EBCC044FEAD137AD
:101A50004FEA826206FB07FC42EA90124FEA80607E
:101A60004FEA1C4C0CFB0BF7D21B03FB0CF761EB92
:101A700007010CFB0EF7B0EB074072EB17420CFBB3
:101A800008F734BFA2EB0742B2EB074261EB174104
:101A90004FEA8C554FEA910704EB9C2406FB07FCA8
:101AA0004FEA1C4C0CFB0BF7B0EBC74072EB573204
:101AB00003FB0CF734BFA2EBC742B2EBC74261EBAA
:101AC00057310CFB0EF7B0EBC70072EB57720CFBF3
:101AD00008F734BFA2EBC702B2EBC70261EB577144
:101AE00015EB4C254FEA816141EA92114FEA82627F
:101AF0004FEAD13742EA901206FB07FC44F100049A
:101B00004FEA80604FEA1C4C0CFB0BF7D21B03FB27
:101B10000CF761EB07010CFB0EF7B0EB074072EB23
:101B200017420CFB08F734BFA2EB0742B2EB0742A7
:101B300061EB174115EB1C154FEA813141EA9241E7
:101B40004FEA823242EA90424FEA80304FEA0C7606
:101B500044F1000448EA03434EEA0B484FF0000EFC
:101B6000B2EB080C71EB030724BF624639464EEB1B
:101B70000E0E4FF0000B0018524149414BEB0B0B7E
:101B8000B2EB080C71EB03077BF1000B24BF62463C
:101B900039464EEB0E0E4FF0000B001852414941F2
:101BA0004BEB0B0BB2EB080C71EB03077BF1000B5B
:101BB00024BF624639464EEB0E0E51EA020718BFAB
:101BC00046F0010616EB0E7655F1000254F10001C5
:101BD00003D5BDE88901BDE80088BDE88901BDE8FD
:101BE0000048B619524141EB0101A3F101037047CE
:101BF00080807F7E7D7C7B7A79787776767574734A
:101C0000727171706F6E6E6D6C6C6B6A6A69686808
:101C1000676666656464636362616160605F5F5E9E
:101C20005E5D5D5C5C5B5B5A5A5959585857575614
:101C30005655555554545353525252515150505079
:101C40004F4F4F4E4E4D4D4D4C4C4C4B4B4B4A4ACB
:101C50004A4949494848484747474746464645450F
:101C60004544444444434343434242424241414148
:101C7000002B9C4630D477002BD01CB54FEA370799
:101C800003B44FF010004FF01001BAF1000F06D06E
:101C9000BCF1000FDCBF40F0080040F008014FF03D
:101CA00000000FBCBDE810400BF1010BBBF1010FB0
:101CB00008BF5FEA170722BF12F1010211F101010B
:101CC0004FF0004143F1000300F0004043EA000000
:101CD0007047F9D35708D0E746EA064613F1400F9C
:101CE0004FEA16461FDD13F1200FDFBF16430A46E9
:101CF000002120335B42BED0C3F1200746EA0646EE
:101D000002FA07F74FEA164646EA0706C3F120072C
:101D100022FA03F201FA07F721FA03F14FF0000368
:101D200042EA0702A7E746EA020646EA06464FEA03
:101D3000164646EA0106BCBF46EA0646360C4FF098
:101D400000034FF000024FF0000194E72DE9804CB2
:101D50009A46934670B491E8380007C831EA400CBF
:101D600048BF34EA430C03D5FFF7E6FDFFF780FFD9
:101D7000F0BCBDE8008C2DE9804C9A46934670B4C7
:101D800091E8380007C810F0804F08BF13F0804F6B
:101D900003D100F005F8FFF76BFFF0BCBDE8008C45
:101DA00020F07F4780EA030023F07F4C07EB0C0311
:101DB000A3F57C5300F00040A3F1FE0392F0000F66
:101DC00000F0B38095F0000F00F077802DE9014915
:101DD0004FEA11404FEA144621EA004800FB06FC96
:101DE00024EA064708FB06F607FB08F800FB07F79E
:101DF00018EB06484CEB164C4FEA124B18EB074811
:101E00004FEA15464CEB174022EA0B4E0BFB06FC43
:101E100025EA06470EFB06F607FB0EFE0BFB07F74F
:101E20001EEB064E4CEB164C4FF000061EEB074E19
:101E30004CEB174B18EB0B0840F1000018EB0E0BA6
:101E400058EB000840F100008F1A4FF000013CBF32
:101E5000C943661B14BFB5EB040C00213CBFC9434A
:101E6000F61B4FEA17444EEA8E0E27EA04454FEA66
:101E70001C4704FB07622CEA074C05FB07F70CFB29
:101E800005F604FB0CFC16EB074642EB174216EB7B
:101E90000C4642EB1C421BEB060658EB020241418A
:101EA00046EA9E0601D5BDE80189B619524141EBCB
:101EB0000101A3F10103BDE801894FEA14454FEA8E
:101EC000114724EA054621EA074C05FB07F406FB07
:101ED00007F70CFB06F105FB0CFC11EB074144EB8B
:101EE00017444FEA124711EB0C4144EB1C4422EA21
:101EF000074C05FB07F206FB07F70CFB06F605FB94
:101F00000CFC16EB074642EB174216EB0C4642EB75
:101F10001C456A1854F1000148BF7047B619524178
:101F200041EB0101A3F10103704795F0000F37D099
:101F30004FEA11424FEA144721EA024624EA074CCD
:101F400002FB07F106FB07F70CFB06F402FB0CFC97
:101F500014EB074441EB17414FEA154714EB0C44CF
:101F600041EB1C4125EA074C02FB07F506FB07F78E
:101F70000CFB06F602FB0CFC16EB074645EB17457F
:101F800016EB0C4645EB1C42121951F1000148BFFB
:101F90007047B619524141EB0101A3F101037047AB
:101FA0004FEA14454FEA114724EA054621EA074C57
:101FB00005FB07F106FB07F70CFB06F24FF00006E6
:101FC00005FB0CFC12EB074241EB174112EB0C42F4
:101FD00051EB1C4148BF7047921841EB0101A3F13E
:101FE000010370473EB514460A46CDE90043014659
:101FF00001204FF47A7503460295034800F094FCE3
:10200000002800D001203EBD700200203EB51446DD
:102010000A46CDE90043014601204FF47A75034694
:102020000295034800F032FD002800D001203EBD9B
:10203000700200203EB514460A46CDE90043014631
:1020400001204FF47A7503460295034800F06CFCBA
:10205000002800D001203EBDC40200203EB5144639
:102060000A46CDE90043014601204FF47A75034644
:102070000295034800F00AFD002800D001203EBD73
:10208000C4020020FEE700207047002070470000D7
:1020900010B500220449054804F007F80449034834
:1020A00003F0FAFF002010BDC4110020F408002046
:1020B000C40D002010B50C460146074803F0ECFFA4
:1020C000054803F0B1FF208881B20448018004482C
:1020D00007F05AF9002010BDF4080020520000203B
:1020E000C40D002000207047094A10B5D2F8BC2268
:1020F000D2F814220AB1012010BD0A460146044854
:1021000003F0D3FFBDE81040014804F038B80000E8
:10211000F4080020704772B6FEE700B585B0A0F164
:102120000060C00A002202900120CDE90020039146
:10213000049204A9684600F02FF9002801D04FF05E
:10214000FF3005B000BD0000144A117F144801297A
:1021500001D003290FD1036823F4007303600368DF
:1021600043F400630360036823F4006303600368BF
:1021700043F400730360022901D003290BD10168E5
:1021800041F480510160016821F4805101600168CF
:1021900041F48061016000201077704774000020D6
:1021A00000200240C107054803D0416941F0040105
:1021B0004161416941F48031416170470020024032
:1021C00008494A69C0B222F4FC7242EAC000486180
:1021D000486940F002004861486940F48030486135
:1021E0007047000000200240054910B54C6944F0DA
:1021F00001044C610260BFF36F8F436010BD0000AB
:1022000000200240094A10B55469402344F4802458
:102210005461EFF3108272B610C95B1E10C013F048
:10222000FF03F9D182F3108810BD000000200240A6
:1022300070B5064600F0C0FA0546134C07E000BF33
:1022400000F0BAFA401BB04201D9032070BD2069EA
:10225000C003F5D420694CF2FA3108400CD00B4988
:102260004A6802434A60810F01D0A169A1618100DF
:1022700000D02061012070BD2069C00701D001207D
:102280002061002070BD000000200240740000208A
:1022900010B590F8253000210122022B03D0042133
:1022A000C163012122E003681C6824F00E041C6055
:1022B000836C1C6824F480741C6003681C6824F020
:1022C00001041C6090F84430046C03F01F0302FA10
:1022D00003F36360D0E913345C60436D33B11C6871
:1022E00024F480741C60D0E916345C6080F82520EA
:1022F000002280F82420084610BD70B590F82520F3
:10230000002401212346022A07D00422C26380F858
:10231000251080F82430012429E00268156825F092
:102320000E0515600268156825F001051560826CC0
:10233000156825F48075156090F84420056C02F04E
:102340001F0201FA02F26A60D0E913255560426D5E
:1023500032B1156825F480751560D0E916255560F1
:1023600080F8251080F82430816B01B18847204621
:1023700070BD000070B5044600F01EFA0546601CF2
:1023800002D004484068044400F016FA401BA04202
:10239000FAD370BD680000202DE9F05F0546314892
:1023A0008946017801290CD00126804606704FF439
:1023B0007A7B5846FFF73CFF07004FF0000A03D036
:1023C0004BE00220BDE8F09F51464046C8F804A00B
:1023D000254C226892050AD52168490505D5216852
:1023E00021F480612160032109E0067708E022687A
:1023F000520504D5216821F4806121600221017712
:102400002868012805D04FF0FF31C9F80010AE68E8
:102410001CE06868FFF7C6FE5846FFF709FF07464D
:10242000606920F00400606115E030466968FFF7DC
:10243000C7FE5846FFF7FCFE0700606920F4FD70F8
:10244000606102D0C9F8006005E0761CD5E90201A0
:102450000844B042E9D8FFF777FE88F800A0384674
:10246000B0E7000074000020002002400549012070
:102470004A6942F000424A614969002900DA0020B5
:1024800070470000002002402DE9FF5F254C064602
:10249000904620789A4601280BD0012020704FF4F6
:1024A0007A7B5846FFF7C4FE07004FF0000904D0BE
:1024B0002AE0022004B0BDE8F09F4846C4F804902A
:1024C000194D2968490504D5286820F480602860E2
:1024D0000220207726B1012E09D0022E07D00CE071
:1024E000424653460198FFF77FFE012612E041461F
:1024F0000198FFF787FE022E0AD05846FFF798FE94
:102500004FEA0007FFF720FE84F800903846D1E735
:102510004FF480265846FFF78BFE07466869B043A4
:102520006861EFE7740000200020024006490020A7
:102530004A69002A07DA054A8A60054A8A604969B9
:10254000002900DA0120704700200240230167457E
:10255000AB89EFCD2DE9F04FDFF820920023012663
:102560000324A9F1040B85B00F2709F1040AABF18C
:10257000040EFAE006FA03F52A407CD091F804C074
:102580000CF0030CBCF1010F02D0BCF1020F26D1FC
:10259000D0F808C0CDF800C04FEA430C04FA0CF89C
:1025A000CDF810C0DDF800C02CEA080CCDF800C052
:1025B000D1F80C80DDF810C008FA0CF8DDF800C086
:1025C00048EA0C08C0F80880D0F804C02CEA050CD2
:1025D0000D79C5F300159D4045EA0C0545600D7960
:1025E000ED43AD070ED0C5684FEA430804FA08FC76
:1025F00025EA0C05D1F808C00CFA08FC4CEA050CD9
:10260000C0F80CC00D7905F00305022D16D1DD08C8
:1026100000EB850CCDF808C0DCF820805D074FEAA0
:10262000D56C07FA0CF528EA05080D6905FA0CF5D2
:10263000DDF808C045EA0805CCF8205005684FEAE7
:10264000430CCDF808C004FA0CFC25EA0C0591F8FF
:1026500004C00CF00308DDF808C008FA0CF848EADA
:102660000508C0F800804D6815F4403F7CD0444D0B
:10267000D5F860C000E077E04CF0010CC5F860C010
:102680002D6E23F0030C05F0010500953D4D6544CA
:102690000295AD684FEA837C4FEA1C7807FA08FC84
:1026A00025EA0C05B0F1904F06D0DFF8DCC060459C
:1026B00005D14FF0010C20E04FF0000C1DE0DFF8D9
:1026C000CCC0604502D14FF0020C16E0DFF8C0C06C
:1026D000604502D14FF0030C0FE0DFF8B8C0604551
:1026E00002D14FF0040C08E0DFF8ACC0604502D125
:1026F0004FF0050C01E04FF0060C0CFA08FC4CEA18
:10270000050C029DC5F808C0D9F80050CC46D1F898
:10271000048095435FEAC82800D51543CCF80050E3
:10272000DAF80050D446D1F8048095435FEA88284F
:1027300000D51543CCF80050DBF80050DC46D1F84A
:10274000048095435FEA883800D51543CCF80050E3
:10275000DEF80050F446D1F8048095435FEAC838AB
:1027600000D51543CCF800505B1C0A6832FA03F51B
:102770007FF400AF05B0BDE8F08F00000804014011
:10278000001002400000014000040048000800481A
:10279000000C00480010004800140048426921EA7B
:1027A00002030A4043EA0241816170470AB1816134
:1027B00070478162704700000148806870470000E0
:1027C0006800002090F84120202A24D190F8402071
:1027D000012A20D0012280F84020242280F84120C4
:1027E0000268136823F0010313600268136823F47E
:1027F00080531360026813680B43136001680A6812
:1028000042F001020A60202180F84110002180F886
:102810004010084670470220704790F84120202A57
:1028200022D190F84020012A1ED0012280F84020B9
:10283000242280F841200268136823F0010313600A
:102840000268136823F4706343EA01211160016890
:102850000A6842F001020A60202180F8411000213C
:1028600080F84010084670470220704770B5040099
:1028700004D094F84100002510B106E0012070BD9D
:1028800084F84050204600F0ADF9242084F841003F
:102890002068016821F0010101606068216820F072
:1028A000706008612068816821F400418160E068FF
:1028B0000128A06830D040F4044021688860E068B6
:1028C0000228206841682AD021F400614160206814
:1028D0004168144A114341602068C16821F40041F5
:1028E000C160D4E904010843A16940EA01202168DC
:1028F000C860D4E9070108432168086020680168BE
:1029000041F0010101606564202084F841002563E5
:1029100084F84250002070BD40F40040CDE741F4FF
:102920000061D3E7008000022DE9FF4F83B0044629
:10293000DDE9108790F84100DDF848909A4693460B
:10294000202874D15FEA080014D09FB194F84000A9
:1029500001286CD0012084F84000FFF72DFF0646C7
:10296000012200901923D103204602F061FA0028C9
:1029700071D103E04FF4007060646CE0222084F8B1
:102980004100402084F8420000256564C4F824809A
:1029900067856563CDE9009653465A4620460499FB
:1029A00002F0CAF910B184F8405054E0618D354806
:1029B000FF274FF080784FF0007AFF2904D9278550
:1029C0003A464346009005E0618D2185009094F8D9
:1029D000282053462046049902F012FA4B46002262
:1029E00004212046009602F023FAA0BB2068406A2A
:1029F000616A0870606A401C6062208D401E81B26E
:102A00002185608D401E6085608DD8B1D1B94B465F
:102A1000002280212046009602F00AFAD8B9608D83
:102A2000FF2805D927853A464346009506E026E06B
:102A3000608D2085009594F82820534620460499FF
:102A400002F0DEF9608D0028C8D1324649462046A2
:102A500002F02BFA18B1012007B0BDE8F08F216811
:102A60002020C86121684A68074B1A404A6084F8F0
:102A7000410084F8425084F840500020ECE70220E6
:102A8000EAE700000024008000E800FE2DE9FF4F87
:102A900083B00446DDE9108790F84100DDF84890E6
:102AA0009A469346202871D15FEA080014D09FB15E
:102AB00094F84000012869D0012084F84000FFF715
:102AC0007BFE0646012200901923D103204602F026
:102AD000AFF900286ED103E04FF40070606469E044
:102AE000212084F84100402084F8420000256564DC
:102AF000C4F8248067856563CDE9009653465A463D
:102B00002046049902F04AF910B184F8405051E08F
:102B1000608DFF274FF080784FF0007AFF2804D9AE
:102B200027853A464346009505E0608D208500954F
:102B300094F8282053462046049902F061F9324661
:102B40004946204602F0DCF9A0BB606A21680078A3
:102B50008862606A401C6062608D401E6085208DC6
:102B6000401E80B22085618DD9B1D0B94B4600227C
:102B700080212046009602F05BF9D8B9608DFF28CD
:102B800005D927853A464346009506E026E0608D44
:102B90002085009594F8282053462046049902F099
:102BA0002FF9608D0028CAD132464946204602F0EE
:102BB0007CF918B1012007B0BDE8F08F2068202112
:102BC000C16120684268064B1A40426084F8411097
:102BD00084F8425084F840500020ECE70220EAE7F5
:102BE00000E800FE2DE9F04198B004461421684643
:102BF000FDF778FD442105A8FDF774FD3E492068E6
:102C00003E4C122600254FF09048884236D1402095
:102C100005900B9505A800F055FE08B1FFF77BFA6B
:102C2000E06C40F00100E064E06C00F00100169000
:102C3000E06C40F00200E064E06C042700F0020069
:102C400016904FF400400090CDE90165CDE903579F
:102C500069464046FFF77EFC80200090CDE9016583
:102C6000CDE9035769462648FFF774FCA06D40F490
:102C70000010A065A06D00F4001038E021498842E2
:102C800036D1871505A805970D9500F01BFE08B1F4
:102C9000FFF741FAE06C40F00400E064E06C00F003
:102CA00004001690E06C40F00100E064E06C6946BE
:102CB00000F0010016904FF400700090CDE901651E
:102CC0000820CDE903501048FFF744FC0097CDE9F8
:102CD00001650220CDE9035069464046FFF73AFC02
:102CE000A06D40F08040A065A06D00F0804016907F
:102CF00018B0BDE8F0810000005400400010024010
:102D0000000400480078004000080048024881683C
:102D100042681144816070476800002010B50024AB
:102D2000032000F073F80F2000F008F808B1012428
:102D300001E000F025F8204610BD000070B50E4EF1
:102D400005460024706898B14FF47A71B1FBF0F039
:102D50000A490968B1FBF0F001F044FA40B9102DBE
:102D600006D200222946501E00F030F8356000E0FF
:102D70000124204670BD000068000020940000205F
:102D80000A4882B0016E41F001010166016E01F056
:102D900001010091816D41F080518165806D00F0ED
:102DA0008050009002B000F085BD0000001002408D
:102DB000002809DB00F01F0201219140400980003A
:102DC00000F1E020C0F8001170470000F0B40E4B95
:102DD0001B680C46C3F30223C3F10705042D00D979
:102DE0000425191D072901D2002300E0DB1E01265E
:102DF00006FA05F1491E214099409E40761E164074
:102E00003143F0BC04F090BB0CED00E0064900F04B
:102E1000070208684FF6FF03184040EA0220034A01
:102E200010430860704700000CED00E00000FA0558
:102E300001220168C0F8D022002280F8C82231F8AF
:102E4000540F40F001000880088840F0020008801C
:102E50001046704770B50F4D044669B101290AD17B
:102E6000D4F8D80203F057FC607A002803D0286811
:102E700040F00600286070BD607A28B102F01EFCA8
:102E8000286820F006002860D4F8D802BDE8704019
:102E900003F0D9BB10ED00E010B50C0607D501F02A
:102EA000070101EB810100EBC100103005E001EBEF
:102EB000810100EBC10000F5A87099B232B1012286
:102EC00002730181190C4181002010BD00220273A0
:102ED000C180F9E701EB810200EBC202D0F8D80211
:102EE000526A03F08EBA01EB810200EBC202D0F805
:102EF000D802D2F8642103F0D8BA70B504460B06A4
:102F000001F0070000EB800104EBC1014FF001026A
:102F10004FF0000502D54A74103103E081F8515199
:102F200001F5A871087094F89002012808D084F87F
:102F30009022206803F03AFF84F89052002070BD80
:102F4000022070BD70B5044601F00F002279904256
:102F500001D9012070BD0B0601F0070000EB8001D4
:102F600004EBC1014FF001024FF0000502D54A7495
:102F7000103103E081F8515101F5A8718D7008708E
:102F800094F89002012808D084F89022206803F079
:102F9000ACFF84F89052002070BD022070BD2DE976
:102FA000F04704685FEA42480B788D69B4F85080B6
:102FB0004FF0000C4BF68F7748F2800648F68F7979
:102FC00048F2C00A444428D540F2024808EBC3083E
:102FD00034F80840C4F30904A54203D32D1B8D61C6
:102FE00002D00BE0C1F818C0D0F800C03CF8235064
:102FF0003D4085F4005535432CF82350520609D541
:103000000B78056835F8232002EA090242EA0A0231
:1030100025F8232074B30A8927E040F2064808EB1C
:10302000C30834F80840C4F30904A54203D32D1B98
:103030008D6102D00BE0C1F818C0D0F800C03CF898
:1030400023503D4085F4005535432CF8235052065B
:1030500009D40D78036833F8252002EA090242EA10
:103060000A0223F825202CB14A89496900682346C1
:1030700004F013FA2046BDE8F0872DE9F047054635
:1030800000680C465FEA42681646D1F818C02278FC
:10309000B0F8508048F68F774CF280094FF4004327
:1030A0004FF6FF7A4FF00001404472D540F20248DB
:1030B00008EBC20830F80800C0F30900844514D9B1
:1030C000BCEB000CC4F818C010D0760408D5D5F8B5
:1030D00000C03CF822603E4046EA09062CF8226017
:1030E00094F82420012A47D056E1A161607810B1FC
:1030F000012813D01AE02868B0F85030184400EBCB
:10310000C200B0F80224C2F30902A0F80224B0F809
:10311000022442F40042A0F8022407E02868B0F834
:103120005030184400EBC200A0F8021462782868FE
:1031300012B1012A11D018E0B0F8501008442178DB
:1031400000EBC100B0F80614C1F30901A0F80614A1
:10315000B0F8061441F4004105E0B0F850201044E6
:10316000227800EBC200A0F8061421782846FFF769
:10317000B1FE70046ED40FE1626902446261E269DB
:103180000244E2612669226AB24203D33046111A30
:1031900004E040E084F824100AB11046216261780E
:1031A00011B101292BD033E02968B1F85020114426
:1031B000227801EBC201B1F80224C2F30902A1F89E
:1031C000022401F202413E2809D94209C60600D173
:1031D000521E0E8843EA822216430E8018E048B140
:1031E0004208C30700D0521C0B880AEA822213430C
:1031F0000B800DE00A8842F400420A8008E029684A
:10320000B1F850201144227801EBC201A1F8020468
:1032100083B22289BCE040F2064808EBC20830F8CD
:103220000800C0F30900844515D3BCEB000CC4F8BA
:1032300018C011D0760408D4D5F800C03CF822603C
:103240003E4046EA09062CF8226094F82420012A20
:1032500051D0A1E045E0A161607810B1012813D000
:103260001AE02868B0F85030184400EBC200B0F8FB
:103270000224C2F30902A0F80224B0F8022442F4A6
:103280000042A0F8022407E02868B0F85030184443
:1032900000EBC200A0F802146278286812B1012A7B
:1032A00011D018E0B0F850100844217800EBC100AC
:1032B000B0F80614C1F30901A0F80614B0F806141A
:1032C00041F4004105E0B0F850201044227800EBB2
:1032D000C200A0F8061421782846FFF7FBFD700411
:1032E0005AD421782A6832F82100384040EA09008F
:1032F00022F8210050E0626902446261E2690244FE
:10330000E2612669226AB24203D33046111A216271
:1033100004E00AB11046216284F82410627829681A
:1033200012B1012A2AD031E0B1F85020114422789C
:1033300001EBC201B1F80624C2F30902A1F8062488
:1033400001F206413E2809D94209C60600D1521EA3
:103350000E8843EA822216430E8017E048B14208E5
:10336000C30700D0521C0B880AEA822213430B8049
:103370000CE00A8842F400420A8007E0B1F85020CD
:103380001144227801EBC201A1F80604628983B2DC
:103390006169286804F09CF821782A6832F82100D5
:1033A00048F6BF73184080F0300048F2800318439D
:1033B00022F821000020BDE8F08701F0070101EBB1
:1033C000810100EBC100D0F86C0170472DE9F0419C
:1033D00004460F0601F0070000EB800104EBC10179
:1033E0004FF001064FF0000502D54E74103103E096
:1033F00081F8515101F5A871022B08700A61CB7058
:1034000000D10D7194F89002012809D084F89062DF
:10341000206803F07DFB284684F89052BDE8F081D7
:103420000220FBE710B501F0070404EB840100EB78
:10343000C101C1E959230022C1F86C2181F8512151
:1034400081F85041006801F5A87103F0A3FD002048
:1034500010BD70B5044601F007002279904201D9F1
:10346000012070BD0B064FF000054FF0010206D59C
:1034700000EB800104EBC1014A74103107E001EB5D
:10348000810104EBC10181F8515101F5A8718A70E5
:10349000087094F89002012808D084F890222068DF
:1034A00003F05FFD84F89052002070BD022070BDD3
:1034B00010B501F0070404EB840100EBC101C1E980
:1034C0000923012281F834200B630023CB624A7464
:1034D00001F8104F006803F05DFD002010BD10B52D
:1034E0000446006803F0D6FF010404D52046BDE879
:1034F000104001F093BE41050ED5206830F8441FFE
:1035000021F480610180204600F008F92046BDE8E2
:103510001040002100F02EB9410405D5206830F894
:10352000441F21F480417DE0810405D5206830F8F6
:10353000441F21F4005175E0C1041FD5206830F804
:10354000401F21F004010180206830F8401F21F065
:103550000801018094F8C802012806D1002084F8EF
:10356000C80201462046FFF775FC204600F0EAF845
:10357000206830F8441F21F4805153E0010512D532
:10358000206830F8401F41F008010180206830F8C1
:10359000441F21F400610180206830F8401F41F091
:1035A000040101800AE0010629D5206830F8441F93
:1035B00021F08001018094F8C80218B1204600F083
:1035C00009F910BD206830F8401F41F00401018066
:1035D000206830F8401F41F008010180012084F884
:1035E000C8022068B0F854003C2101EA9000C4F8F9
:1035F000CC022046BDE810400121FFF72BBC81051D
:1036000009D5206830F8441F21F40071018020465C
:1036100000F0ACF810BDC005FCD5206830F8441FA0
:1036200021F48071018010BD70B5040004D094F8BD
:103630009102002510B106E0012070BD84F890527F
:10364000204600F03FF8032084F89102206803F040
:1036500044FC002001260BE000EB800104EBC101DB
:103660004E740874CD740D624D62401CC0B28D6200
:1036700021798142F0D8002012E000BF00EB8001E8
:1036800004EBC10181F8515181F8500181F8535187
:10369000C1F86051C1F86451401CC0B2C1F8685112
:1036A00021798142EAD894E8070003F00DFC2573E4
:1036B00084F89162A07A012802D12046FFF7B8FB76
:1036C000002070BD10B592B0044644216846FDF755
:1036D00009F81049206888421AD14014009000204F
:1036E0000D90684600F0EEF808B1FEF714FD0A48A8
:1036F000816D41F400018165806D002200F40000BD
:10370000119011461420FFF761FB1420FFF750FBC6
:1037100012B010BD005C00400010024070B50446BD
:1037200040790125022801D0FEF7F5FC2946D4F89E
:10373000D80202F0A2FFD4F8D802BDE8704002F02F
:1037400055BF000010B50446407A30B10648016804
:1037500021F00601016001F0B1FFD4F8D802BDE804
:10376000104002F070BF000010ED00E0D0F8D80269
:1037700002F073BF10B5044690F8900201280AD0F9
:10378000012084F890022173206803F09AFE002043
:1037900084F8900210BD022010BDD0F8D82200F5A8
:1037A0002671104602F075BF10B5044690F89002DD
:1037B00001280CD0012084F89002206803F05BFE01
:1037C000206803F07AFB002084F8900210BD0220EC
:1037D00010BD000010B50446D0F8D80202F09BFFDF
:1037E000607A002804D00348016841F006010160B6
:1037F00010BD000010ED00E02B492C4B0A6832216F
:103800004A432B4940B1B0F5007F086829D020F425
:10381000C06040F480602CE00868C0F341200228BA
:1038200004D051F8800F20F4807022E0D1F880009D
:1038300020F48070C1F88000086820F4C06040F473
:1038400000700860B2FBF3F0401C00E0401E4A69C3
:10385000520501D50028F9D1486940050AD5032051
:103860007047C0F34120022806D051F8800F40F481
:103870008070086000207047D1F8800040F48070AC
:10388000C1F88000086820F4C06040F4007008604F
:10389000B2FBF3F0401C00E0401E4A695205DBD544
:1038A0000028F9D1D8E700009400002040420F0022
:1038B000007000400248816841F480418160704797
:1038C000007000402DE9F8430446006800269D4D35
:1038D00000035ED5A86D0027C00008D4A86D40F095
:1038E0008050A865A86D012700F080500090DFF897
:1038F0005892D9F8001041F48071C9F80010FEF711
:103900005BFF804606E000BFFEF756FFA0EB080015
:1039100002282BD8D9F80000C005F5D5D5F89000BD
:1039200010F4407014D0216C814211D0D5F8900071
:10393000D5F8901020F4407041F48031C5F8901013
:10394000D5F8901021F48031C5F89010C5F890009A
:10395000C00711D0FEF730FF804641F2883907E0FA
:10396000FEF72AFFA0EB0801494501D903260BE029
:10397000D5F890008007F3D5D5F89000216C20F49D
:1039800040700843C5F890001FB1A86D20F080502A
:10399000A8652078C00707D0D5F88800616820F0B6
:1039A00003000843C5F888002078800707D5D5F8BC
:1039B0008800A16820F00C000843C5F88800207832
:1039C000400707D5D5F88800E16820F030000843AB
:1039D000C5F888002078000707D5D5F88800216948
:1039E00020F0C0000843C5F888002078800607D57D
:1039F000D5F88800616920F440600843C5F8880064
:103A00002078400607D5D5F88800A16920F44050F9
:103A10000843C5F888002078000607D5D5F8880047
:103A2000E16920F440400843C5F888002088C005BB
:103A300007D5D5F88800216A20F440300843C5F83E
:103A400088002088800507D5D5F88800616A20F4B1
:103A500040200843C5F88800208840050FD5D5F8D8
:103A60008800A16A20F440100843C5F88800A06AC5
:103A7000B0F5801F03D1E86840F48010E86020882A
:103A800000050FD5D5F88800E16A20F4400008430E
:103A9000C5F88800E06AB0F5800F03D1E86840F40B
:103AA0008010E8602088C0040FD5D5F88800216B0D
:103AB00020F040700843C5F88800206BB0F1807F8B
:103AC00003D1E86840F48010E86020884FF000617E
:103AD00080040ED5D5F88800626B20F0406010435A
:103AE000C5F88800606B884203D1E86840F4801014
:103AF000E860208840040ED5D5F88800A26B20F03D
:103B000040601043C5F88800A06B884203D1E86884
:103B100040F48010E860208800040FD5D5F88800B4
:103B2000E16B20F040500843C5F88800E06BB0F12D
:103B3000805F03D1E86840F48030E8603046BDE83B
:103B4000F883000000100240007000402DE9F047AB
:103B50000E4605004FF0000725D0DFF8AC81D8F8FD
:103B6000000000F00F00B0420CD2D8F8001021F095
:103B70000F013143C8F80010D8F8000000F00F0022
:103B8000B04210D12968614CC80741F2883A5AD036
:103B90006868DFF87C91032808D0022820682DD0BF
:103BA000400500282CDB0120BDE8F087206880015B
:103BB000F9D5E06800F00302E068C0F30310401C90
:103BC000032A19D0534A00BFB2FBF0F0E268C2F3F7
:103BD00006225043E268C2F34162521C5200B0FB1D
:103BE000F2F0484517D9A06810F0F00F0CD0880704
:103BF00011D5A86840B10EE0474AE5E78003D0E759
:103C000000F0B6F8484506D9A06820F0F00040F072
:103C10008000A0608027A068696820F00300084346
:103C2000A060FEF7C9FD814606E000BFFEF7C4FDB7
:103C3000A0EB090151453AD8A068696800F00C0072
:103C4000B0EB810FF2D12868810714D5400703D566
:103C5000A06840F4E060A0602878000705D5A0685F
:103C600020F4605040F4E060A060A068A96820F0F3
:103C7000F000084304E0802F03D1A06820F0F0009A
:103C8000A060D8F80010404601F00F01B14216D9EB
:103C9000016821F00F0131430160FEF78DFD0746F9
:103CA00007E000BFFEF788FDC11B514501D9032085
:103CB0007AE7D8F8000000F00F00B042F2D128787F
:103CC000400705D5A068E96820F4E0600843A060DB
:103CD0002878000706D5A068296920F4605040EADA
:103CE000C100A06000F044F8A1680C4AC1F30311C0
:103CF000515C01F01F01C84009490860094800688B
:103D0000BDE8F047FFF71AB800200240001002405B
:103D100000B4C4040024F40000366E01BA9E00080A
:103D20009400002068000020054806490068896862
:103D3000054AC1F30221515C01F01F01C8407047E0
:103D40009400002000100240CA9E00080548064961
:103D500000688968054AC1F3C221515C01F01F0166
:103D6000C84070479400002000100240CA9E00081E
:103D7000184910B58868C0F381021748012A0BD092
:103D80008A68164BC2F38102022A06D08A68C2F3FF
:103D90008102032A03D0002010BD184610BDCA6856
:103DA00002F00304CA68C2F30312521C032C02D0AF
:103DB000B0FBF2F001E0B3FBF2F0CA68C968C2F3ED
:103DC00006225043C1F34161491C4900B0FBF1F0A8
:103DD00010BD0000001002400024F40000366E0107
:103DE0002DE9F84304007AD02078F84DC00747D079
:103DF000A868E96800F00C0001F003010C2802D06B
:103E0000082817D001E0032914D06068B0F5803F7E
:103E100017D0B0F5A02F286817D020F48030286084
:103E2000286820F4802028606068E0B1FEF7C4FCB8
:103E3000064614E02868800322D560680028D2D0A6
:103E40001EE0286840F48030EDE740F480202860D0
:103E5000F7E700BFFEF7B0FC801B642870D8286825
:103E60008003F7D50CE0FEF7A7FC064605E000BF8F
:103E7000FEF7A2FC801B6428F0D828688003F7D4E2
:103E8000207880074CD5A868E96800F00C0001F0A4
:103E900003010C2802D004280DD001E002290AD029
:103EA000E068002828682BD040F480702860FEF776
:103EB00083FC064619E02868400502D5E068002822
:103EC00091D06868217C20F0FE4040EA0160686083
:103ED000BF480068FEF732FF002800D120E072E101
:103EE000FEF76AFC801B0228B8D828684005F7D581
:103EF0006868217C20F0FE4040EA016068600FE0C5
:103F000020F480702860FEF757FC064605E000BFED
:103F1000FEF752FC801B0228A0D828684005F7D481
:103F20002078000729D560690028D5F8940013D0BF
:103F300040F00100C5F89400FEF73EFC064606E09E
:103F400090E000BFFEF738FC801B022886D8D5F829
:103F500094008007F6D510E020F00100C5F8940029
:103F6000FEF72AFC064604E0FEF726FC801B02282A
:103F700078D8D5F894008007F6D42078400761D52A
:103F8000A86D0026C00008D4A86D40F08050A86538
:103F9000A86D012600F0805000908E480168C90588
:103FA00011D40168804641F480710160FEF704FC81
:103FB000074604E0FEF700FCC01B022852D8D8F8E0
:103FC0000000C005F6D5A068012815D00528D5F851
:103FD000900016D020F00100C5F89000D5F89000B0
:103FE00020F00400C5F89000A06841F28838B8B10C
:103FF000FEF7E2FB07460EE0D5F8900040F0010026
:10400000F0E740F00400C5F89000F5E7FEF7D4FBB8
:10401000C11B414526D8D5F890008007F6D50CE0A5
:10402000FEF7CAFB074604E0FEF7C6FBC11B41458D
:1040300018D8D5F890008007F6D41EB1A86D20F0EE
:104040008050A8652078800629D5A0690028D5F879
:10405000980013D040F00100C5F89800FEF7ACFBC3
:10406000064606E075E000BFFEF7A6FB801B0228AF
:104070006FD8D5F898008007F6D510E020F0010041
:10408000C5F89800FEF798FB064604E0FEF794FB9F
:10409000801B02285DD8D5F898008007F6D4E06927
:1040A000F0B3A968C1F3810103295DD00228286813
:1040B00020F08070286003D0FEF77EFB04464BE0C2
:1040C000FEF77AFB064604E0FEF776FB801B02282B
:1040D0003FD828688001F7D4F4E908016FF00F0297
:1040E00002EB01110843218A5204490802EB4151B5
:1040F000A26841EA02210843217D4FF07E4249082F
:1041000002EB41610843217B40EAC160E968324A21
:1041100011400843E860286840F08070286000E0A3
:104120005EE0E86840F08070E860FEF745FB04461A
:1041300005E000BFFEF740FB001B022809D82868F5
:104140008001F7D54CE000BFFEF736FB001B0228CC
:1041500002D90320BDE8F88328688001F4D4E86818
:104160001E490840E8603BE00128F3D0E868226A75
:1041700000F00301914226D1616A00F0F0020901CA
:10418000103991421FD1A26A00F4FE41B1EB022F17
:1041900019D194F82C2000F07841B1EBC26F12D104
:1041A000218E00F4C00249084905A1F50011914291
:1041B00009D194F8341000F0C06049084906A1F113
:1041C000007181420CD00120C4E7000000100240C1
:1041D00068000020007000400C809F01FCFFEEFE94
:1041E0000020B7E710B5401EB0F1807F01D3012059
:1041F00010BD4FF0E02460610F21601703F094F9C7
:104200000020A06107202061002010BD704770478A
:104210007047704770477047F0B590F83C20012A0E
:104220003AD0012580F83C50022280F83D200368F6
:104230005A689C68194E1A4FB34201D0BB4204D150
:1042400022F4700C4A6842EA0C02DFF858C002EA15
:104250000C02D1F800C04CEA020CC3F804C002689A
:10426000B2420DD0B2F1804F0AD00F4B9A4207D024
:104270000E4B9A4204D0BA4202D00D4B9A4204D15E
:10428000896824F080031943916080F83D50002133
:1042900080F83C100846F0BD0220F0BD002C014023
:1042A000003401408FFFFFFD000400400008004083
:1042B00000400140704710B5040003D094F83D0061
:1042C00010B107E0012010BD002084F83C0020461A
:1042D00000F022F8022084F83D00211D206801F042
:1042E00031FA012084F8480084F83E0084F83F0049
:1042F00084F8400084F8410084F8420084F84300C8
:1043000084F8440084F8450084F8460084F84700A7
:1043100084F83D00002010BD08B50068B0F1804F62
:1043200012D10A48816D41F001018165806D002242
:1043300000F00100009011461C20FEF747FDBDE88B
:1043400008401C20FEF734BD08BD000000100240EC
:1043500090F83D10012901D001207047022180F81A
:104360003D100168CA6842F00102CA600068104945
:1043700088420ED0B0F1804F0BD00E49884208D051
:104380000D49884205D00D49884202D00C49884227
:1043900007D181680B4A1140062906D0B1F5803F4C
:1043A00003D0016841F00101016000207047000066
:1043B000002C01400004004000080040003401408F
:1043C000004001400700010070B5044690F83C0031
:1043D0000025012814D0012684F83C60022084F8CE
:1043E0003D0022689068364B184020F47F40906072
:1043F000086870282ED010DC10F00F0F03D021E0D9
:104400004FF0020070BD4FEA2012072A1AD2DFE8EF
:1044100002F0525252524A3840002A4BC21A984275
:1044200049D009DCB0F5805F0DD0B0F5005F1CD03D
:10443000B0F1101F06D13EE0102A3CD0202A3AD01D
:10444000502A38D0012584F83D60002084F83C00D3
:10445000284670BDCB68D1E90121206801F0D0F970
:104460002068816841F0770109E0CB68D1E901213A
:10447000206801F0C5F92068816841F480418160BD
:10448000E1E7CA684968206801F0CEF95021206848
:1044900006E0CA684968206801F0D7F96021206801
:1044A00001F0B8F9CFE7CA684968206801F0BCF9A3
:1044B00040212068F4E7226801461046F0E700003A
:1044C00088FFCEFF2000100070472DE9F041044620
:1044D0000068C66805694FF00007A90713D5B10742
:1044E00011D5F91E016101202077206880698007BD
:1044F000204602D0FFF7E8FF04E000F0B7F82046BE
:1045000000F0B5F82777680716D5700714D521682D
:104510006FF004000861022020772068806910F4A1
:10452000407F204602D0FFF7CFFF04E000F09EF866
:10453000204600F09CF82777280715D5300713D5BB
:1045400021686FF008000861042020772068C069A6
:104550008007204602D0FFF7B7FF04E000F086F89E
:10456000204600F084F82777E80616D5F00614D523
:1045700021686FF010000861082020772068C0696A
:1045800010F4407F204602D0FFF79EFF04E000F0C9
:104590006DF8204600F06BF82777E80708D0F007A1
:1045A00006D021686FF001000861204600F060F835
:1045B000280601D4A80408D5300606D521686FF472
:1045C000025008612046FFF722FEE80508D53006B4
:1045D00006D521686FF4807008612046FFF716FE4B
:1045E000680608D5700606D521686FF0400008619E
:1045F000204600F093F8A80608D5B00606D5216835
:104600006FF0200008612046FFF702FEE80208D59F
:10461000F00206D521686FF4801008612046FFF78C
:10462000F9FDA80208D5B00206D521686FF4001084
:1046300008612046FFF7EDFD680208D5700206D537
:1046400021686FF4800008612046FFF7E4FD28022E
:104650000AD5300208D521686FF4000008612046B1
:10466000BDE8F041FFF726BEBDE8F0817047704716
:1046700070B523492DED028B88423DD1214D224C4E
:104680002888401C80B22880B4F88C10814233D82E
:1046900094F8800070BB80214FF09040FEF77EF8C8
:1046A00004F0C0F99FED190A194803F0BDFB54F856
:1046B0002C0F05F06FFB41EC180B606805F06AFBEE
:1046C00041EC100BB0EE481AF0EE681A03F0BCF89B
:1046D0009FED101B51EC100B53EC112B05F066F9FC
:1046E00004F0EAFE6063606E401C606694F85D0052
:1046F00003F0FCFF00202880BDEC028B70BD0000A1
:104700001803002068020020801F00206F12833AE7
:10471000C415002000000020DCA54C40704790F834
:104720008410012918D0012180F884102421C0F8B8
:10473000881001680A680B6823F001030B6022F0FF
:10474000005100224266036819602021C0F88810D9
:1047500080F88420104670470220704770477047E9
:1047600070B5044690F8840001281DD0012084F81B
:1047700084002420C4F8880020680568026822F0BC
:10478000010202602068826822F060620A4382604F
:10479000204601F06DF8206805602020C4F88800EC
:1047A000002084F8840070BD022070BD70B50446FE
:1047B00090F8840001281DD0012084F88400242072
:1047C000C4F8880020680568026822F001020260CF
:1047D0002068826822F060420A438260204601F02D
:1047E00047F8206805602020C4F88800002084F87D
:1047F000840070BD022070BD704770477047000094
:104800002DE9F04103680446D86919689A6840F6B2
:104810000F0528424FF000054FF002060AD1870627
:104820007ED501F0200702F0805C57EA0C0777D0B4
:10483000616F3AE1B24FDFF8CCC2174001EA0C0CCD
:1048400057EA0C0C6CD05FEAC07C0CD05FEAC15C0C
:1048500009D54FF0010CC3F820C0D4F8903043F0D4
:104860000103C4F89030830709D5D30707D0236824
:104870001E62D4F8903043F00403C4F8903043072C
:104880000AD5D30708D0266804233362D4F89030C1
:1048900043F00203C4F8903003070CD501F0200365
:1048A0003B4308D0266808233362D4F8903043F0A5
:1048B0000803C4F8903003050BD54B0109D52668D1
:1048C0004FF400633362D4F8903043F02003C4F80F
:1048D0009030D4F89030002B3DD0800609D501F0FF
:1048E000200002F08051084303D0616F09B12046D7
:1048F0008847D4F8900021688968490602D410F0EE
:10490000280F2AD0204601F099F8206880684006D8
:104910001ED52068083050E8001F21F0400100E05B
:1049200021E040E80012002AF3D1D4F8800078B1E9
:1049300075498163D4F88000FDF7DFFC00280AD0B8
:10494000D4F88000816B00E02046BDE8F0410847C4
:104950002046FFF753FFBDE8F0812046FFF74EFFEA
:10496000C4F89050F7E7D4F86CC02027BCF1010FD1
:104970007ED15FEAC06C7BD55FEAC16C78D5102030
:10498000186220688068400645D5D4F88010086811
:1049900040680004000CDED0B4F85C208242DAD912
:1049A000A4F85E000868006880062CD4216851E8ED
:1049B000000F20F4807041E80002002AF6D1206840
:1049C000083050E8001F21F0010140E80012002AE1
:1049D000F5D12068083050E8001F21F0400140E880
:1049E0000012002AF5D1C4F88C70E566206850E802
:1049F000001F21F0100140E80012002AF6D1D4F87F
:104A00008000FDF745FC2667B4F85C00B4F85E1042
:104A1000401A81B230E0B4F85C00B4F85E10401A7D
:104A200081B2B4F85E00002895D0002993D02268A6
:104A300052E8000F20F4907042E80003002BF6D1FA
:104A40002F4BDB432068083050E8002F1A4040E825
:104A5000002CBCF1000FF5D1C4F88C70E5666567D9
:104A6000226852E8000F20F0100042E8000300E046
:104A700006E0002BF4D126672046FFF76FFE6AE7B9
:104A8000C60209D5560207D54FF480101862204699
:104A9000BDE8F041FFF7B1BE03060AD501F080037F
:104AA00002F40002134304D0A16F00297FF44CAF3D
:104AB00051E7420611D54A060FD52046026852E852
:104AC000001F21F0400142E80013002BF6D1C0F88E
:104AD0008870856700F096F83DE7020206D54A0027
:104AE00004D52046BDE8F041FFF786BEC001C6D51B
:104AF0000029C4DA2046BDE8F041FFF730BE0000CF
:104B00000100001020010004295A000810B504001B
:104B100003D0D4F8880010B107E0012010BD0020B8
:104B200084F88400204600F027F82420C4F8880088
:104B30002068016821F001010160A06A10B12046DF
:104B400000F0B8FE204600F0A3FF0128E6D0206860
:104B5000416821F4904141602068816821F02A0178
:104B600081602068016841F0010101602046BDE8D4
:104B7000104000F003BF000010B598B004461421A7
:104B800011A8FBF7AFFD44216846FBF7ABFD1B49BD
:104B90002068884230D101200024CDE90004684615
:104BA000FEF790FE08B1FDF7B6FA1548016E41F424
:104BB00080410166016E01F480411691C16C41F0A3
:104BC0000101C164C06C11A900F0010016904FF4FE
:104BD000C06011900220CDE912040720CDE91440F5
:104BE0004FF09040FDF7B6FC002201212520FEF792
:104BF000EDF82520FEF7DCF818B010BD00380140B4
:104C0000001002407047FEE701688A69D2439207AC
:104C100001D400228A6200688169C943C90703D0B0
:104C2000816941F001018161704700002DE9F04781
:104C30000446006889460026816935461746C9063C
:104C40004FF0200841D51021C1612FE0B9F1FF3F9D
:104C50002CD0FDF7B1FDC11B494502D8B9F1000FB9
:104C600024D12068416894F8422001F4804183698E
:104C7000DB431B0415D4B1F5804F12D0202A10D08D
:104C8000416841F480414160FDF796FD074608E028
:104C9000FDF792FDC01B192803D945F02005012618
:104CA00004E020688069C0438006F1D420688069F0
:104CB000C043800602D5002EC8D003E016B9216893
:104CC000C1F81C8045F00405012621688869C205E9
:104CD00005D54FF4807245F00105CA6101264105F2
:104CE00009D522684FF4806145F00805D16101269D
:104CF000800502D40AE0800507D521684FF40070D2
:104D000045F00205C861012600E086B12046FFF7A4
:104D10007BFF54F8240B4168064A11404160206A29
:104D20002843206284F81D800020A0772077304639
:104D3000BDE8F08700E800FE2DE9F843044616467A
:104D4000DDE9089714489846DAB20090002320461F
:104D500000F056F83A464946204600F0D1F8B8B976
:104D6000F5B2B8F1010F08D02168300A88623A46DE
:104D70004946204600F0C4F850B9206885624B4689
:104D8000002240212046009700F052F8002800D071
:104D90000120BDE8F8830000002000802DE9F843E1
:104DA0000446164615489846DDE90897DAB2C3026C
:104DB0000090204600F024F83A464946204600F08C
:104DC0009FF8B8B9F5B2B8F1010F08D02168300AE0
:104DD00088623A464946204600F092F850B9206869
:104DE00085624B46002280212046009700F020F883
:104DF000002800D00120BDE8F883000000200080DA
:104E000010B5C1F3090141EA02410268029C19434D
:104E10002143506821F000414FF4806303EA54536A
:104E2000024C234398430843506010BDFF63FF03C7
:104E30002DE9F0411D4617460E460446DDF8188060
:104E400027E0424629462046FFF7F0FE10B1012038
:104E5000BDE8F081681C1CD0FDF7AEFCA0EB08009B
:104E6000A84200D8ADB92068806936EA00000ED0AB
:104E70000020B8420DD154F8440F40F0200044F80F
:104E80000409202060700020A0702070DFE701205E
:104E9000EFE72068806936EA000004D00020B842BD
:104EA000CFD00020D4E70120F9E770B516460D46B3
:104EB00004461EE0324629462046FFF7B7FE08B1F9
:104EC000012070BDFDF778FC801BA84200D885B991
:104ED00020688069C04380060BD554F8440F40F029
:104EE000200044F80409202060700020A070207089
:104EF000E6E720688069C0438006DBD4002070BDEF
:104F000070B516460D46044620E032462946204636
:104F1000FFF78CFE08B1012070BD681C16D0FDF7AC
:104F20004BFC801BA84200D885B920688069C0432B
:104F300080070BD554F8440F40F0200044F80409D2
:104F4000202060700020A0702070E4E72068806955
:104F5000C0438007D9D4002070BD0000F0B5002305
:104F60000A24302537261F4611E000BFB4EB107F1E
:104F700002D905EB107C01E006EB107C01F813C0B0
:104F800001EB430C00015B1C8CF80170DBB2934217
:104F9000ECD3F0BDF0B587B014216846FBF7A2FB57
:104FA0002148C16C41F02001C164C16C01F02001B5
:104FB0000591C16C41F00401C164C16C01F00401B0
:104FC0000591C16C41F00101C164C16C01F00101A6
:104FD0000591C16C41F00201C164C06C134E00F038
:104FE00002000590002207213046FDF7DFFB4FF05D
:104FF0009047002280213846FDF7D8FB072000901B
:1050000001250024CDE90154694630460394FDF79B
:10501000A1FA80200090CDE90154694638460394F6
:10502000FDF798FA07B0F0BD0010024000080048F4
:10503000144810B512490160134941600021012252
:10504000C0E90212016141618161C1610162FDF744
:105050000DFC08B1FDF75FF800210A48FDF7B2FB2F
:1050600008B1FDF758F800210648FDF7D6FB08B156
:10507000FDF751F80548416841F48011416010BDC9
:1050800000540040700200207221800000000140A6
:10509000154810B5134901601449416000210122EF
:1050A000C0E90212016141618161C1610162FDF7E4
:1050B000DDFB08B1FDF72FF84FF480510A48FDF7EA
:1050C00081FB08B1FDF727F800210748FDF7A5FB94
:1050D00008B1FDF720F80648416841F480014160BD
:1050E00010BD000000780040C4020020782C800031
:1050F0000000014010B588B00024174800940194C6
:1051000002940394049405944FF080410694016046
:10511000A921C0E9011440F2E731C0E9031480215C
:105120008161FFF7C8F808B1FCF7F5FF4FF4805034
:10513000009069460848FFF747F908B1FCF7EBFF14
:10514000049404A904480694FFF766F8002801D0E7
:10515000FCF7E1FF08B010BD18030020174810B598
:105160001549016016494160002181600C22C1602F
:10517000C0E904128161C161016241628162FFF78D
:10518000C5FC08B1FCF7C7FF00210C48FFF70EFB78
:1051900008B1FCF7C0FF00210848FFF7E1FA08B1A9
:1051A000FCF7B9FF0548FFF7BAFA002803D0BDE8BD
:1051B0001040FCF7B0BF10BD003801406403002070
:1051C00080841E0010B500220F49104801F0F4F849
:1051D00008B1FCF7A0FF0E490C4801F0C4FA08B171
:1051E000FCF799FF0B49094800F032FF08B1FCF7C2
:1051F00092FF064801F032FB002803D0BDE81040C2
:10520000FCF789BF10BD000000000020F40800205A
:105210007401002054000020FEE7FEE72DE9F84F5E
:10522000044640F68F7A40F2064B48F60F784FF06E
:105230000009B5E1B0F8441011F00F053AD030F88C
:10524000256031047DD530F8251001EA0A0141F0CE
:10525000800120F8251005EB850004EBC00797F8C6
:105260005C0107F5A87700286CD0F87802286AD08E
:105270003978226832F8210048F68F73184048F2D6
:10528000C003184322F821003878D4F800C03CF855
:1052900020104904BCF8501001EB0C027ED540F2FE
:1052A000024101EBC000105A8005800D009076D0BD
:1052B0003A89D0E0C9062AD4018801EA080141F4FC
:1052C00000410180206804F11005B0F85010227CE4
:1052D000014440F2024000EBC200085AC0F309004A
:1052E000E062616A0844606200212046FDF7F2FD39
:1052F000207B00289DD0A86900289AD1207B40F00F
:1053000080012068A0F84C1084F80C9048E10188D6
:1053100004F5A8750A051ED5B0F850102A78014486
:105320000BEBC200085A04F52671C0F30903EB61C8
:10533000EA88206802F0B1F82168088800EA0A00CB
:1053400002E0A4E068E077E040F0800008802046BA
:10535000FEF723FA24E10904D8D5018801EA0A01FD
:1053600041F0800101802068B0F850100A182878B8
:105370000BEBC000105A83059B0DEB610DD06969E2
:1053800059B1EA88206802F088F8E9696869084438
:10539000686100212046FDF7A6FD01E053E051E0E1
:1053A000206801880A05B1D4C1F301310329ADD0C9
:1053B000B0F850100844B0F80614C1F30901A0F881
:1053C0000614296900F206403E2909D94A09C9068E
:1053D00000D1521E01884FF4004343EA822209E0C3
:1053E000B1B14A08C90700D0521C01884FF6FF73BB
:1053F00003EA822211430180216808884BF68F72EC
:10540000104080F4405048F2800210430880C7E00A
:10541000018841F40041EEE72068B0F850103B7875
:105420000A180BEBC301515A8905890D009117D059
:10543000FA887969009B11E0324639462046FDF72B
:10544000AEFD00900CE00BEBC000105A8005800D03
:10545000009005D07A8903466046796902F01DF80C
:10546000F96900980844F8617969009808447861FE
:10547000B86918B139690098814204D93978204651
:10548000FDF731FD03E03946206801F083FD300669
:105490002DD505EB850004EBC001206830F82520F0
:1054A00002EA080242F4004220F82520C87C1031AC
:1054B00001281DD0F0056FD42268B2F8500083187F
:1054C0000A7840F2024000EBC200185A8A69C0F321
:1054D0000900824258D9121A8A6157D04A69024497
:1054E0004A61CA691044C861206801F053FD57E061
:1054F000C1F818900A7B48461AB3720622D54A783A
:1055000012B1012A14D041E02068B0F850201044B4
:105510000A7800EBC200B0F80224C2F30902A0F836
:105520000224B0F8022442F40042A0F802242DE044
:105530002268B2F850301A440B7802EBC302A2F88A
:10554000020423E04B78226813B1012B13D01DE035
:10555000B2F8500010440A7800EBC200B0F80624FC
:10556000C2F30902A0F80624B0F8062442F400426F
:10557000A0F806240AE0B2F850301A440B7802EB87
:10558000C302A2F8060401E0C1F818900978204689
:10559000FDF7A0FC04E0FFE732462046FDF76DFD75
:1055A0002068B0F8441009043FF544AE0020BDE87F
:1055B000F88F7047F0B50F4C00230F4EDD002E44DE
:1055C000D6F800680C4F3D44D5F8045804EBC307E7
:1055D0005B1CC7E90065FF2BEFD90023074D06E0F0
:1055E000C61826442E4496F80068CE545B1C93429D
:1055F000F6D3F0BD9816002000F001080000FEF779
:105600002DE9F041ADF5006D14460F460546FCF757
:105610008DFF17482844C0F30A06C10AC6F5006585
:10562000AC4200D8A5B212484FF40068404200EBEB
:10563000C124424669462046FFF7BCFF20460121AF
:10564000FCF76BFD00200B4904E03A5C8319401C19
:10565000CA5480B2A842F8D320464246694600F0B8
:105660000BF8FCF703FF0DF5006DBDE8F0810000BD
:105670000008FEF7981600202DE9F0411646054671
:105680000024094F0AE000BF07EBC4002946D0E917
:1056900000230020FCF7F8FE641C0835B4EBD60F9D
:1056A000F2D3BDE8F0810000981600207047017821
:1056B000407841EA00207047FDF728BB10B594B050
:1056C00038216846FBF70EF814210EA8FBF70AF8FC
:1056D0000020FEF791F8212000904FF480300190D7
:1056E0000120032406210690CDE90841022055211E
:1056F000CDE90A1007900C900D906846FEF770FBFC
:1057000008B172B6FEE70F20CDE90E04002010901C
:105710001190129004210EA8FEF718FA002801D06B
:1057200072B6FEE714B010BD0248016841F4700182
:105730000160704788ED00E00148FEF7C6BE00003A
:10574000180300202DE9F0430268264B264D274E12
:10575000274C4FF08049984207D0484505D0A842D1
:1057600003D0B04201D0A04203D122F070074A68B2
:105770003A43204FDFF880C0DFF8808098420DD098
:1057800048450BD0A84209D0B04207D0A04205D06E
:10579000B84203D0604501D0404503D122F44075A2
:1057A000CA682A434D6922F080022A4302608A684F
:1057B000C2620A688262984207D0A04205D0B8420D
:1057C00003D0604501D0404501D109690163012141
:1057D00041610169C90703D0016921F0010101613B
:1057E000BDE8F083002C01400004004000080040A8
:1057F00000340140004001400044014000480140A5
:1058000010B5846842EA032224F47F440A43224309
:10581000826010BD8268034B1A400A4342F00701C0
:10582000816070478FFFCFFF10B5036A046A24F0D0
:1058300001040462846924F0F00444EA021423F0B1
:105840000A020A438461026210BD10B5036A046A49
:1058500024F010040462846923F0A00324F470444B
:1058600044EA023243EA01118261016210BD000084
:1058700030B5416EB9B1026891689268C1F3426176
:105880000B4B520F9C5CE50003F10804A25CB5FBD6
:10589000F2F2A0F86A205A5C615CD200B2FBF1F12E
:1058A000A0F8681030BD0121A0F86A10F8E70000E8
:1058B000AA9E000890F82810090706D501684A68D2
:1058C000836B22F400421A434A6090F82810C907FB
:1058D00006D001684A68C36A22F400321A434A605B
:1058E00090F82810890706D501684A68036B22F4EE
:1058F00080321A434A6090F82810490706D501689B
:105900004A68436B22F480221A434A6090F82810B8
:10591000C90606D501688A68C36B22F480521A430F
:105920008A6090F82810890606D501688A68036C99
:1059300022F400521A438A6090F82810490611D5C3
:1059400001684A68436C22F480121A434A60416C31
:10595000B1F5801F06D101684A68836C22F4C00249
:105960001A434A6090F82810090606D501684A686B
:10597000C06C22F4002202434A6070472DE9F843CC
:1059800000260446C0F89060FCF716FF80462068A9
:1059900000684FF0200500076FF07E4713D543469F
:1059A000002229042046009700F0ACF958B1216884
:1059B00051E8000F20F0800041E80002002AF6D1F3
:1059C000C4F8885021E020680068400722D543468B
:1059D00000224FF480012046009700F093F9C8B1EF
:1059E000216851E8000F20F4907041E80002002A7D
:1059F000F6D12068083050E8001F21F0010140E88E
:105A00000012002AF5D1C4F88C5084F88460032079
:105A1000BDE8F883C4F88850C4F88C5044F86C6F23
:105A2000666026760020F3E710B5806A0021A0F8B2
:105A30005E10A0F85610FEF7E1FE10BD10B502682A
:105A400052E8001F21F4907142E80013002BF6D1B8
:105A50000E4B0268083252E8001F194042E8001459
:105A6000002CF6D1C16E012908D1016851E8002F40
:105A700022F0100241E80023002BF6D12021C0F8CB
:105A80008C100021C166416710BD0000FEFFFFEFD2
:105A90002DE9F0410446016880682269E3691043FA
:105AA000626900251A431043DFF82CC20A688B4B49
:105AB0001A4002430A6020684168E26821F44051BC
:105AC000114341602168A069614501D0226A1043F9
:105AD0008A68834B1A4002438A602068C16A626AFE
